:107800000C94343C0C94513C0C94513C0C94513CE1
:107810000C94513C0C94513C0C94513C0C94513CB4
:107820000C94513C0C94513C0C94513C0C94513CA4
:107830000C94513C0C94513C0C94513C0C94513C94
:107840000C94513C0C94513C0C94513C0C94513C84
:107850000C94513C0C94513C0C94513C0C94513C74
:107860000C94513C0C94513C11241FBECFEFD8E036
:10787000DEBFCDBF11E0A0E0B1E0E4EBFEE702C067
:1078800005900D92A230B107D9F712E0A2E0B1E065
:1078900001C01D92AD30B107E1F70E94273D0C9465
:1078A000583F0C94003C982F8091C00085FFFCCF7E
:1078B0005A9A9093C6008091C00086FFFCCF8091B9
:1078C000C00080648093C0005A9808951F93982F39
:1078D0009595959595959595905D8F708A3054F412
:1078E000182F105D892F0E94533C812F0E94533C1A
:1078F0001F910895182F195A892F0E94533C812FE8
:107900000E94533C1F910895EF92FF920F931F9393
:10791000EE24FF2487018091C00087FD17C00894E2
:10792000E11CF11C011D111D81EDE81682E1F80634
:1079300083E1080780E0180770F3E0910401F091FB
:10794000050109958091C00087FFE9CF8091C600AD
:107950001F910F91FF90EF9008951F930E94843C18
:10796000182F0E94533C113634F410330CF010538E
:10797000812F1F9108951755812F1F9108951F93EF
:107980000E94AD3C182F0E94AD3C1295107F810FD4
:107990001F9108951F93182F882321F00E94843C83
:1079A0001150E1F71F9108951F93182F0E94843CF6
:1079B000803281F0809103018F5F809303018530D5
:1079C00011F01F910895E0910401F09105010995CE
:1079D0001F91089584E10E94533C812F0E94533CE3
:1079E00080E10E94533C1F9108950E94843C8032A4
:1079F00071F0809103018F5F80930301853009F05E
:107A00000895E0910401F09105010995089584E13C
:107A10000E94533C80E10E94533C089544EF51E0A2
:107A20008823A1F02D9A28EE33E0FA013197F1F77F
:107A300021503040D1F72D9828EE33E0FA013197EC
:107A4000F1F721503040D1F7815061F70895FF924E
:107A50000F931F93CF93DF93000084E18093C400C2
:107A60001092C50088E18093C10086E08093C20037
:107A70005098589A259A81E00E940E3DFF24F39475
:107A80000E94843C8033B1F18133B9F1803409F430
:107A900054C0813409F45AC0823409F469C0853471
:107AA00009F46CC0803531F1823521F1813511F155
:107AB000853509F469C0863509F471C0843609F446
:107AC0007AC0843709F4E1C0853709F43BC18637B1
:107AD00009F44AC0809103018F5F809303018530D0
:107AE00079F6E0910401F091050109950E94843C2A
:107AF000803351F60E94F53CC3CF0E94843C803213
:107B000049F784E10E94533C81E40E94533C86E59E
:107B10000E94533C82E50E94533C80E20E94533C09
:107B200089E40E94533C83E50E94533C80E50E9417
:107B3000533C80E10E94533CA3CF0E94843C863892
:107B4000C8F20E94843C0E94F53C9ACF0E94843C7B
:107B5000803809F496C0813809F4F0C0823809F4FD
:107B600006C1883909F489C080E00E94D43C88CFDE
:107B700084E10E94CA3C0E94F53C82CF85E00E94CD
:107B8000CA3C0E94F53C7CCF0E94843C8093060155
:107B90000E94843C809307010E94F53C71CF0E94B3
:107BA000843C803309F4E7C083E00E94CA3C80E053
:107BB0000E94D43C65CF0E94843C809309020E94BD
:107BC000843C8093080280910C028E7F80930C028B
:107BD0000E94843C853409F4DFC0809108029091B2
:107BE0000902892B89F000E010E00E94843CF80132
:107BF000E85FFE4F80830F5F1F4F809108029091D6
:107C000009020817190788F30E94843C803209F0A2
:107C100061CF80910C0280FFD7C060910601709106
:107C20000701660F771F7093070160930601A0910B
:107C30000802B09109021097C9F0E8E0F1E09B0159
:107C4000AD014E0F5F1FF999FECF32BD21BD81916D
:107C500080BDFA9AF99A2F5F3F4FE417F50799F71D
:107C60006A0F7B1F709307016093060184E10E94F5
:107C7000533C80E10E94533C03CF83E00E94D43CFC
:107C8000FFCE82E00E94D43CFBCE0E94843C8093D5
:107C900009020E94843C8093080280910601909121
:107CA0000701880F991F90930701809306010E9496
:107CB000843C853409F476C080910C028E7F8093D9
:107CC0000C020E94843C803209F0DACE84E10E94EA
:107CD000533C20910802309109022115310509F425
:107CE00042C000E010E0E0910601F09107010CC0F5
:107CF00081FF5EC03196F0930701E09306010F5FAC
:107D00001F4F0217130778F580910C0280FFF0CF08
:107D1000F999FECFF2BDE1BDF89A80B50E94533CBF
:107D2000E0910601F09107013196F0930701E0938D
:107D300006012091080230910902E1CF81E00E9402
:107D4000D43C9ECE0E94843C803209F0C3CE84E1B4
:107D50000E94533C8EE10E94533C85E90E94533CB3
:107D60008FE00E94533C80E10E94533C89CE80E129
:107D70000E94D43C85CE0E94843C0E94843C182FF3
:107D80000E94843C112309F48BC0113009F48CC08B
:107D90008FE00E94D43C74CE80910C02816080936D
:107DA0000C021BCF80910C02816080930C0289CF62
:107DB00084910E94533C2091080230910902E09185
:107DC0000601F091070196CF809107018823880F63
:107DD000880B8F2180930B028091060190910701FF
:107DE000880F991F909307018093060180910802E4
:107DF00080FF09C08091080290910902019690933A
:107E0000090280930802F894F999FECF1127E091B6
:107E10000601F0910701C8E0D1E08091080290913D
:107E20000902103091F40091570001700130D9F32C
:107E300003E000935700E89500915700017001306E
:107E4000D9F301E100935700E8950990199000914A
:107E5000570001700130D9F301E000935700E89515
:107E60001395103498F011270091570001700130DC
:107E7000D9F305E000935700E89500915700017091
:107E80000130D9F301E100935700E895329602974B
:107E900009F0C7CF103011F00296E5CF1124E6CEDD
:107EA0008EE10E94D43CECCD85E90E94D43CE8CD23
:047EB000F894FFCF74
:027EB40080004C
:040000030000780081
:00000001FF
