:100000000C9434000C9451000C9451000C94510049
:100010000C9451000C9451000C9488010C945100E4
:100020000C9451000C9451000C940E200C9451002F
:100030000C9451000C94AA200C9451000C94510083
:100040000C949C050C9451000C94E51B0C94981B8B
:100050000C946C1B0C9460160C9451000C94510081
:100060000C9448170C94510011241FBECFEFD8E018
:10007000DEBFCDBF11E0A0E0B1E0E2ECFDE402C0E4
:1000800005900D92A637B107D9F713E0A6E7B1E0C6
:1000900001C01D92A235B107E1F70E9414220C9411
:1000A000DF260C940000FC010FB60F92F89410822A
:1000B000059692838183948383830F900FBE089566
:1000C000DC018C9181508C931396ED91FC911497E7
:1000D000E08113968D919C911497019614969C93B0
:1000E0008E93139713962D913C911497AD014B5F0E
:1000F0005F4FCD010D962817390711F08E2F089507
:1001000014965C934E9313978E2F0895DC018C9177
:10011000883018F48C918F5F8C931196ED91FC913F
:100120001297608311968D919C9112970196129669
:100130009C938E93119711962D913C911297AD013E
:100140004B5F5F4FCD010D962817390709F00895D1
:1001500012965C934E9311970895FC018081882339
:1001600011F080E008958FEF0895DC010FB60F9233
:10017000F8948C9181508C931396ED91FC91149787
:10018000E08113968D919C911497019614969C93FF
:100190008E93139713962D913C911497AD014B5F5D
:1001A0005F4FCD010D962817390721F00F900FBE34
:1001B0008E2F089514965C934E9313970F900FBE55
:1001C0008E2F0895DC010FB60F92F8948C91883031
:1001D00018F48C918F5F8C931196ED91FC9112978E
:1001E000608311968D919C911297019612969C9323
:1001F0008E93119711962D913C911297AD014B5F03
:100200005F4FCD010D962817390719F00F900FBEDB
:10021000089512965C934E9311970F900FBE089518
:1002200088ED809360000FB60F92F8948FEF809363
:100230007A010F900FBE08950FB60F92F894909325
:100240000101809300010F900FBE08950FB60F9229
:10025000F8948FEF80937A010F900FBE08950FB638
:100260000F92F8948FEF80937A010F900FBE08954C
:100270000FB60F92F89410927901109278010F90B6
:100280000FBE0895FC010FB60F92F894809176018D
:1002900090917701918380830F900FBE0895FC01A8
:1002A0000FB60F92F8948091760190917701918327
:1002B00080830F900FBE0895FC010FB60F92F89443
:1002C00080917601909177010F900FBE0190F0819F
:1002D000E02D8E179F0738F49C01215030402E1BD3
:1002E0003F0BC90108959C012E1B3F0BC9010895C6
:1002F0000F931F938B010E945C018017910720F4DC
:1003000080E01F910F9108958FEF1F910F91089535
:100310001F920F920FB60F9211242F933F938F933A
:100320009F93809176019091770140969093770109
:100330008093760180917801909179014096909315
:100340007901809378012091780130917901809131
:100350000001909101018217930720F480917A01A6
:10036000882329F4809160008065809360009F91CC
:100370008F913F912F910F900FBE0F901F90189566
:10038000482F662359F09C01F90190E0819198274C
:100390008E2F841B8617D0F3892F089590E0FCCF11
:1003A000CF92DF92EF92FF920F931F93CF93DF9341
:1003B0006C018B017A01DB019C91F6018081981719
:1003C00051F08FEFDF91CF911F910F91FF90EF9040
:1003D000DF90CF900895DB0111968C9111978C934B
:1003E000F601808111968C93119712968C91129739
:1003F000843618F1E114F10429F0C7010E94AD0020
:100400008823F1F098012E5F3F4FF80143814E5F42
:10041000A9F1522FF90190E0819198278E2F851B29
:100420008417D0F3D80154969C93D6011496ED917D
:10043000FC911597C8010995C5CF13961C92DACF88
:100440008AEFD80112968C93129713961C92F8019A
:100450008381C82FD0E0C7010E94B500C00FD11F13
:100460008C83D80113968C9113978F5F13968C937E
:10047000C7010E94AD00882351F3C4CF90E0D2CFD2
:100480000F931F93CF93DF938C01EB01DC01169642
:10049000ED91FC911797CB010995882329F4DF9101
:1004A000CF911F910F9108955C899E012E5F3F4F60
:1004B0006B816E5FA9F0422FF90190E0819198273E
:1004C0008E2F841B8617D0F3591741F0F8018281D3
:1004D000938162E20E94E20080E0E1CF8FEFDFCF04
:1004E00090E0F2CFAF92BF92CF92DF92EF92FF9265
:1004F0000F931F93DF93CF9300D0CDB7DEB76C017E
:100500008B0182E0E82EF12CE60EF71EDB0113963C
:100510004C914E5F09F44BC05E2DF70190E0819144
:1005200098278E2F851B8417D0F3F801948B828136
:10053000883CB0F4D6011496ED91FC911597C80152
:1005400009958823A9F40F900F90CF91DF911F9107
:100550000F91FF90EF90DF90CF90BF90AF900895F4
:10056000D6011496ED91FC911597C8010995EBCF32
:100570005E010894A11CB11CC5010E944201D60174
:100580001696ED91FC911797C8010995882389F477
:10059000C50168EC70E00E947801882381F3F601C0
:1005A0008281938161E20E94E20080E0CCCF90E002
:1005B000BCCFF801548963816E5FC1F04E2DC70135
:1005C000FC0190E0819198278E2F841B8617D0F331
:1005D000591751F0D60112968D919C91139762E2B2
:1005E0000E94E20080E0AFCF8FEFADCF90E0F0CF80
:1005F000FF920F931F93CF93DF93082FEB01F42EFD
:10060000882349F585E59AE19D838C838AE19AE107
:100610009F838E838AE09AE1998788878FE09AE1A9
:100620009B878A8780916801909169019B838A8367
:10063000842F64E670E00E94991A1FEF0983F88204
:10064000E885F9858FEF0995812FDF91CF911F9173
:100650000F91FF900895843010F01FEFEFCF83EDDE
:100660009DE19D838C8384E49DE19F838E838EE353
:100670009DE19987888781E49DE19B878A878091A6
:100680006C0190916D019B838A838981642F20E89E
:1006900035E240E050E00E94061E8823F1F610E0AB
:1006A000CDCF0FB60F92F8946091830170918401C1
:1006B0000F900FBE882777FD8095982F0E94BF234B
:1006C00020910401309105014091060150910701EC
:1006D0000E944B2420E030E048EC52E40E942423A6
:1006E0000E948C23CB010895809102018F5F80933B
:1006F00002018150843648F181E0809302018091AB
:100700007B0190917C01A0917D01B0917E012091AF
:100710007F01309180014091810150918201821BC3
:10072000930B909384018093830180917B0190913E
:100730007C01A0917D01B0917E0180937F01909317
:100740008001A0938101B093820108950FB60F92AA
:10075000F89480917B0190917C01A0917D01B091F2
:100760007E0180509C4FAF4FBF4724F480E00F9034
:100770000FBE08958FEFFBCF0FB60F92F8948091C4
:100780007B0190917C01A0917D01B0917E0181500F
:100790009440A040B04824F080E00F900FBE089530
:1007A0008FEFFBCFDF93CF9300D0CDB7DEB72A9882
:1007B0000000000000000000000000000000000039
:1007C0000000000080E00E94D5168A8380E00E942D
:1007D000D51689832A9A29813A81329522952F70DC
:1007E00023273F702327C9010F900F90CF91DF91EE
:1007F00008950E94D2039C0140E050E00FB60F9292
:10080000F89420938501309386014093870150939B
:10081000880190938A018093890190938C01809341
:100820008B01109284011092830110927B0110922F
:100830007C0110927D0110927E0110927F01109236
:100840008001109281011092820181E08093020167
:1008500010928D0110928E0110928F0110929001D2
:100860000F900FBE08950E94D2030895EF92FF9259
:100870000F931F930FB60F92F89480918901909176
:100880008A0190938C0180938B010E94D2039093F4
:100890008A01809389012091890130918A01809198
:1008A0008B0190918C0140E050E0A0E0B0E0281B6B
:1008B000390B4A0B5B0B2053384F4F4F5F4F9CF463
:1008C00080918D0190918E01A0918F01B091900146
:1008D0000196A11DB11D80938D0190938E01A0936F
:1008E0008F01B09390012091890130918A0180910C
:1008F0008B0190918C0140E050E0A0E0B0E0281B1B
:10090000390B4A0B5B0B215D3740404050409CF057
:1009100080918D0190918E01A0918F01B0919001F5
:100920000197A109B10980938D0190938E01A09345
:100930008F01B093900180918D0190918E01A091D3
:100940008F01B09190012091890130918A01E0904E
:100950008501F0908601009187011091880140E0A7
:1009600050E06CE0880F991FAA1FBB1F6A95D1F752
:10097000280F391F4A1F5B1F2E193F09400B510BCF
:1009800020937B0130937C0140937D0150937E0145
:100990000F900FBEB901CA011F910F91FF90EF9008
:1009A00008950E94BE160E94D2030E94D2030FB681
:1009B0000F92F8949C0140E050E020938501309321
:1009C0008601409387015093880190938A01809318
:1009D000890190938C0180938B0110928401109275
:1009E000830110927B0110927C0110927D01109284
:1009F0007E0110927F01109280011092810110926D
:100A0000820181E08093020110928D0110928E018B
:100A100010928F01109290010F900FBE0895909345
:100A2000940180939301089584E69AE2A8E8B4E4DF
:100A30008093040190930501A0930601B0930701F0
:100A400082E085BDE1EBF0E0808385B5877F85BDE1
:100A500084B58D7F84BD84B5836084BD84B5806199
:100A600084BD84B5806284BD84B58F7384BD80816C
:100A7000877F8083E0EBF0E080818D7F80838081C1
:100A800083608083808180618083808180628083B5
:100A900080818F73808318BC1092B400EEE6F0E082
:100AA0008081816080837894E4E6F0E080818F79B2
:100AB000808308959B01AC0197FD18C0232F342F2C
:100AC000452F55272F3F31054105510529F020F0CD
:100AD0002FEF30E040E050E097FD04C028BD1092B9
:100AE000B400089518BC2093B4000895222733273A
:100AF000A901261B370B480B590BE0CF1F93182F6A
:100B0000882381F45C9860E070E080E090E00E94CF
:100B10005A050FB60F92F894109395010F900FBEDF
:100B20001F9108955C9AEFCF0FB60F92F8948091C1
:100B300095010F900FBE08951F920F920FB60F925E
:100B400011242F933F934F935F936F937F938F93D2
:100B50009F93AF93BF93EF93FF93809191019091F7
:100B600092010196909392018093910101970997C8
:100B700048F0E0919301F09194010995109292014F
:100B800010929101FF91EF91BF91AF919F918F9141
:100B90007F916F915F914F913F912F910F900FBE79
:100BA0000F901F9018956F927F928F929F92AF92A5
:100BB000BF92CF92DF92EF92FF920F931F93CF934A
:100BC000DF93EC018E819F81A885B9858A879B87F9
:100BD000AC87BD87EE8DFF8D09952E893F89488DA5
:100BE000598D621B730B840B950B6E837F838887F3
:100BF00099872E853F8548895989260F371F481FB9
:100C0000591F2E873F87488B598B8A899B89AC89CE
:100C1000BD8982179307A407B50734F48E879F8791
:100C2000A88BB98B9C01AD01662477244301681A17
:100C3000790A8A0A9B0A26153705480559050CF0DA
:100C40004CC06E867F86888A998AAE80BF80C884B1
:100C5000D9848A859B85AC85BD85A6019501281B15
:100C6000390B4A0B5B0BCA01B9012C813D8140E075
:100C700050E00E9408257B018C016881798180E029
:100C800090E0A60195010E940825E60EF71E081FB8
:100C9000191F2A813B8140E050E0C401B3010E944A
:100CA0000825672F782F892F992787FD9A956E0D34
:100CB0007F1D801F911FEC8DFD8D0995DF91CF91D8
:100CC0001F910F91FF90EF90DF90CF90BF90AF906A
:100CD0009F908F907F906F90089539014A01B5CF12
:100CE00084E084B985B18E6385B917B888B1806313
:100CF00088B98EE38AB981EC8BB90895AF92BF921F
:100D0000CF92DF92EF92FF920F931F93E0901C011E
:100D1000F0901D0100911E0110911F0160912401AE
:100D2000709125018091260190912701A8019701DA
:100D30000E94BF225B016C01609120017091210132
:100D40008091220190912301A80197010E94BF2266
:100D50009B01AC01C601B5010E944B242091040106
:100D60003091050140910601509107010E944B24EA
:100D70000E948C23161617061806190654F480E0F4
:100D80001F910F91FF90EF90DF90CF90BF90AF90A9
:100D900008958FEFF5CF0E9436049B01AC0180913E
:100DA000340190913501A0913601B0913701281B93
:100DB000390B4A0B5B0B57FD07C02230310541054B
:100DC000510574F080E00895509540953095219537
:100DD0003F4F4F4F5F4F223031054105510594F78A
:100DE0008FEF08950E9436049B01AC018091300181
:100DF00090913101A0913201B0913301281B390B40
:100E00004A0B5B0B57FD07C02230310541055105E8
:100E100074F080E0089550954095309521953F4FAE
:100E20004F4F5F4F223031054105510594F78FEF49
:100E300008956F927F928F929F92AF92BF92CF92BE
:100E4000DF92EF92FF920F931F93609120017091B8
:100E5000210180912201909123010E94F0245B01E5
:100E60006C01E0903401F090350100913601109151
:100E700037010E9436043B014C01C601B50120E058
:100E800030E040E05FE30E944B245B016C01E61818
:100E9000F70808091909C801B7010E94BF239B017F
:100EA000AC01C601B5010E9424231F910F91FF9050
:100EB000EF90DF90CF90BF90AF909F908F907F90FA
:100EC0006F90089580E090E064E00E94B42680E195
:100ED00090E060EA7FE00E94CA2680E290E064E64B
:100EE00070E00E94CA2680E390E068EE73E00E9402
:100EF000CA2680E490E068E873E10E94CA2680E593
:100F000090E068E873E10E94CA2680E890E060E023
:100F10000E94B42680EA90E040E052EC61E070E08C
:100F20000E94C22680E990E040EA56E861E070E065
:100F30000E94C22680E690E060E273E00E94CA262A
:100F400080E790E060E273E00E94CA2680EB90E0C8
:100F50006FEF0E94B42680EC90E060E00E94B4261F
:100F6000089580E090E00E94A0268093080180E12F
:100F700090E00E94AE2690933E0180933D0180E276
:100F800090E00E94AE269093400180933F0180E361
:100F900090E00E94AE26909342018093410180E44C
:100FA00090E00E94AE2690930B0180930A0180E5A9
:100FB00090E00E94AE2690930D0180930C0180E892
:100FC00090E00E94A0268093090180EA90E00E94B0
:100FD000A82660930E0170930F01809310019093E7
:100FE000110180E990E00E94A8266093120170939D
:100FF0001301809314019093150180E690E00E9404
:10100000AE26909339018093380180E790E00E94EA
:10101000AE2690933B0180933A0180EB90E00E94D2
:10102000A0268093160180EC90E00E94A026809379
:10103000170108950E9470060E94140580E00E9426
:101040007E05F89488E998E00E940F050E94D1047B
:101050000E94F903F8940E94B10710925D0110926A
:1010600043011092440110924501109246011092E2
:101070004701109248011092490110924A011092C2
:101080004B0110924C0110924D0110924E011092A2
:1010900053011092540110925501109256018AE5A5
:1010A00095E090935A018093590186E394E09093E0
:1010B0005C0180935B0160913D0170913E018FEF77
:1010C0009FEF0E942725962F8827861B970BA0E06D
:1010D000B0E080934F0190935001A0935101B093E1
:1010E000520180E090E0A0E0B0E080932001909376
:1010F0002101A0932201B0932301109203010E94C9
:10110000510B0E94E715F89480E00E942A1680E0B7
:101110000E943A1681E00E943A1682E00E943A1636
:1011200083E00E943A1687E00E943A167894089568
:10113000AF92BF92CF92DF92EF92FF920F931F93E5
:101140000E94740380910301882379F08330B1F009
:10115000843009F4ABC0823009F47CC0E0915701BF
:10116000F09158018DE391E009951F910F91FF9047
:10117000EF90DF90CF90BF90AF900895E090200166
:10118000F09021010091220110912301E0922401AD
:10119000F09225010093260110932701A0901C01D5
:1011A000B0901D01C0901E01D0901F01C801B70171
:1011B000A60195010E94BF229B01AC010E944B2415
:1011C00020910401309105014091060150910701E1
:1011D0000E944B240E948C23161617061806190627
:1011E0000CF0E9C0C801B701209128013091290114
:1011F00040912A0150912B010E94C022609320014E
:101200007093210180932201909323012091180172
:101210003091190140911A0150911B010E94C02286
:10122000609318017093190180931A0190931B0128
:101230000E948C2360935301709354018093550155
:1012400090935601E0915701F09158018DE391E0A0
:1012500009958BCF609118017091190180911A0145
:1012600090911B0120912001309121014091220198
:10127000509123010E94C0226093180170931901BC
:1012800080931A0190931B010E948C236093530159
:10129000709354018093550190935601E09157014A
:1012A000F09158018DE391E009955FCFE090200126
:1012B000F09021010091220110912301E09224017C
:1012C000F0922501009326011093270180913C01A3
:1012D000813099F1813040F1823009F03FCF0E9496
:1012E000CB06882309F456C0E0903401F090350114
:1012F0000091360110913701C801B7010E94BF2348
:10130000609318017093190180931A0190931B0147
:10131000E0925301F092540100935501109356014D
:1013200081E0809303011ACF0E947E06882309F48E
:1013300059CF81E080933C0111CF0E94F2068823AF
:1013400029F5609118017091190180911A0190910D
:101350001B0120911C0130911D0140911E015091F3
:101360001F010E94C022609318017093190180939D
:101370001A0190931B010E948C2360935301709378
:1013800054018093550190935601E8CE82E08093FA
:101390003C01E4CEE0902001F09021010091220177
:1013A000109123010E9419079B01AC01C801B701EC
:1013B0000E94BF2223CF82E080930301A0922001EC
:1013C000B0922101C0922201D0922301C7CEAF92E8
:1013D000BF92CF92DF92EF92FF920F931F930FB6BF
:1013E0000F92F894A090B001B090B101C090B201FA
:1013F000D090B3010E9436046093B0017093B101A4
:101400008093B2019093B301E0905301F0905401A6
:1014100000915501109156010F900FBE9B01AC0138
:101420002E193F09400B510BDA01C90189539F4F17
:10143000AF4FBF4F8F589140A040B04028F1CA0134
:10144000B90157FD27C0A60195012E193F09400B90
:10145000510B57FD2EC0621773078407950754F090
:1014600084EB91E060ED77E00E947801882311F031
:101470008FEF01C080E01F910F91FF90EF90DF9000
:10148000CF90BF90AF90089584EB91E00E9442010D
:1014900080E0F1CF90958095709561957F4F8F4F4B
:1014A0009F4FA60195012E193F09400B510B57FF85
:1014B000D2CF50954095309521953F4F4F4F5F4F7C
:1014C000CACF86EB91E00E94AD008823B1F486EB91
:1014D00091E00E94B500682F853080F0809117015F
:1014E000882361F4605F83EA91E00E94E20086EB6A
:1014F00091E00E94AD00882351F30895605F86E972
:1015000091E00E94E200DDCFEF92FF921F93CF9314
:10151000DF93EC017B0110E08A819B810E94AD008A
:101520008823C9F48A819B810E94B500682F898134
:10153000882311F5633041F580911701882351F517
:1015400083EA91E063E20E94E2008A819B810E942B
:10155000AD00882339F3CE01B70146E951E00E947E
:10156000D001882319F41F5F1530B1F6DF91CF91B8
:101570001F91FF90EF900895843070F6605C86E9CB
:1015800091E00E94E200C8CF605E86E991E00E948F
:10159000E200C2CF86E991E063E20E94E200BCCFA4
:1015A000EF92FF920F931F93CF93DF93EC017B0198
:1015B00000E08A819B810E94AD008823D9F48A8152
:1015C0009B810E94B500182F813260F589818823A4
:1015D00001F5612F605E86E991E00E94E200113121
:1015E00011F0123131F70FEF8A819B810E94AD001B
:1015F000882329F3002331F0CE01B70146E951E0F9
:101600000E94D001DF91CF911F910F91FF90EF9039
:101610000895843070F6105C86E991E0612F0E9495
:10162000E200C7CF682F605D86E991E00E94E2008A
:10163000123209F0BECF0FEFD7CF0FB60F92F8944A
:101640000F900FBE80910301882309F408950E9432
:10165000E7098823E1F40E94A603882371F40E941D
:10166000BC03882399F380E090E00E94F21286E99F
:1016700091E063E00E94E200089580E090E00E9423
:10168000F21286E991E062E00E94E200E8CF80E099
:1016900090E00E94F21286E991E061E00E94E2008F
:1016A000DACF86E991E00E94530083EA91E00E943C
:1016B00053000E94100184EB91E00E9442010895C2
:1016C000FC0184819581A681B7810FB60F92F894B1
:1016D00021E0209303018093530190935401A09340
:1016E0005501B09356010F900FBE0895FC018481FF
:1016F0009581A681B7810FB60F92F89421E02093CF
:1017000003012091530130915401409155015091B2
:101710005601820F931FA41FB51F8093530190930E
:101720005401A0935501B09356010F900FBE089538
:10173000FC01848195810FB60F92F89421E02093EB
:101740005D01AA2797FDA095BA2F80935E01909323
:101750005F01A0936001B09361010F900FBE0895E7
:10176000FC0184819581A681B7810FB60F92F89410
:1017700022E020935D0180935E0190935F01A0932E
:101780006001B09361010F900FBE0895FC01848148
:101790009581A681B7810FB60F92F89423E020932C
:1017A0005D0180935E0190935F01A0936001B0930F
:1017B00061010F900FBE0895FC01848195810FB6E1
:1017C0000F92F89424E020935D01AA2797FDA0953D
:1017D000BA2F80935E0190935F01A0936001B09354
:1017E00061010F900FBE0895FC0184819581A6814F
:1017F000B7810FB60F92F89425E020935D01809396
:101800005E0190935F01A0936001B09361010F901E
:101810000FBE0895FC0184819581A681B7810FB622
:101820000F92F89426E020935D0180935E019093DF
:101830005F01A0936001B09361010F900FBE089506
:10184000FC010FB60F92F8944BB1809109012481ED
:10185000822390E09C013695322F222737952795D9
:101860004F77422B4BB925B1880F991F880F991FCD
:10187000880F991F8873277C822B85B90F900FBE24
:101880000895FC0182E083830FB60F92F894809153
:101890003D0190913E01958384830F900FBE089582
:1018A000FC0182E083830FB60F92F89480913F0190
:1018B00090914001958384830F900FBE0895FC01A1
:1018C00082E083830FB60F92F8948091410190914A
:1018D0004201958384830F900FBE0895FC0182E03E
:1018E00083830FB60F92F89480913801909139015B
:1018F000958384830F900FBE0895FC0182E083835B
:101900000FB60F92F89480913A0190913B01958324
:1019100084830F900FBE0895FC0182E083830FB68D
:101920000F92F89480910A0190910B019583848322
:101930000F900FBE0895FC0182E083830FB60F92D3
:10194000F89480910C0190910D01958384830F9000
:101950000FBE0895FC0181E0838380910901848397
:101960000895FC0181E083838091160184830895AA
:10197000FC0181E083830FB60F92F89429B183B103
:1019800090E0887390709595879595958795221F1F
:101990002227221F282B0F900FBE248308950F9318
:1019A0001F938C0182E0F80183830E945103F801A8
:1019B000958384831F910F9108952F923F924F92A8
:1019C0005F926F927F928F929F92AF92BF92CF92CF
:1019D000DF92EF92FF920F931F93DF93CF93CDB7D8
:1019E000DEB728970FB6F894DEBF0FBECDBF3C011F
:1019F000882477FC8094982C0FB60F92F8948091ED
:101A00000301813009F4F2C0809104019091050135
:101A1000A0910601B091070189839A83AB83BC83AF
:101A2000BC01CD0120912001309121014091220182
:101A3000509123010E944B240E948C235B016C0176
:101A4000609118017091190180911A0190911B0108
:101A50000E948C231B012C016A147B048C049D04BE
:101A60000CF4B2C080913801909139019C0140E0A2
:101A700050E02D833E834F8358870F900FBE0FB6E3
:101A80000F92F894C201B1010E94BF236093180124
:101A90007093190180931A0190931B01C401B30143
:101AA000A40193010E9408257B018C01C601B501A8
:101AB000A60195010E940825E61AF70A080B190BE2
:101AC000C801B7012D813E814F8158850E945D2557
:101AD000CA01B90122E030E040E050E00E945D25FB
:101AE000220D331D441D551D20932C0130932D01D3
:101AF00040932E0150932F0183E080930301C40192
:101B0000B3010E94BF2329813A814B815C810E94ED
:101B1000242360931C0170931D0180931E019093F8
:101B20001F01C601B5010E94BF2329813A814B8163
:101B30005C810E942423DC019B01AC0120932001E5
:101B4000309321014093220150932301CB018093D4
:101B5000240190932501A0932601B09327016D8164
:101B60007E818F8198850E94BF2329813A814B8194
:101B70005C810E94242329813A814B815C810E94EF
:101B80002423609328017093290180932A01909364
:101B90002B010F900FBE28960FB6F894DEBF0FBE34
:101BA000CDBFCF91DF911F910F91FF90EF90DF900C
:101BB000CF90BF90AF909F908F907F906F905F90ED
:101BC0004F903F902F900895809138019091390166
:101BD000A0E0B0E022273327A901281B390B4A0BCC
:101BE0005B0B2D833E834F83588747CF0E9436047B
:101BF0001B012C010E9451035C01CC24B7FCC09452
:101C0000DC2C209104013091050140910601509196
:101C1000070129833A834B835C831ECFFC018481B7
:101C200095810E94DD0C08950F931F938C0184E031
:101C3000F80183830E943604F801648375838683E8
:101C400097831F910F9108950FB60F92F89481E03A
:101C5000809303010E9436046093530170935401F2
:101C600080935501909356010F900FBE0895CF9326
:101C7000DF93FC01C481D5810FB60F92F894809157
:101C80000301813009F1BE01882777FD8095982FE7
:101C90000E94BF232091040130910501409106016B
:101CA000509107010E942423609320017093210129
:101CB000809322019093230182E0809303010F908F
:101CC0000FBEDF91CF9108950E9436040E94BF237A
:101CD000609318017093190180931A0190931B016E
:101CE000D2CF2F923F924F925F926F927F928F92BC
:101CF0009F92AF92BF92CF92DF92EF92FF920F939B
:101D00001F93DF93CF93CDB7DEB76E970FB6F894DE
:101D1000DEBF0FBECDBF6B8F7C8F8D8F9E8F0FB6BA
:101D20000F92F89480910301813009F4B7C2209199
:101D300004013091050140910601509107012D8366
:101D40003E834F835887CA01B90120912001309109
:101D5000210140912201509123010E944B240E94B5
:101D60008C236B877C878D879E876091180170918B
:101D7000190180911A0190911B010E948C236F8B95
:101D8000788F898F9A8F8F89988DA98DBA8D2B8D99
:101D90003C8D4D8D5E8D281739074A075B070CF483
:101DA00076C180913801909139019C0140E050E06A
:101DB0002B8B3C8B4D8B5E8B5095409530952195B0
:101DC0003F4F4F4F5F4F2F87388B498B5A8B8091F6
:101DD0003A0190913B011C014424552431E039879C
:101DE00081E090E0A0E0B0E089839A83AB83BC837C
:101DF0000F900FBEC201B1012B853C854D855E85DC
:101E00000E94082597FD1DC259016A016F88788CD0
:101E1000898C9A8C1A86C601B501A60195010E948B
:101E2000082522E030E040E050E00E945D25790185
:101E30008A016B8D7C8D8D8D9E8D66197709880941
:101E400099092B893C894D895E890E940825E60EF7
:101E5000F71E081F191FC801B7010E94BF230E9467
:101E6000B2240E948C239B01AC0169817A818B8111
:101E70009C810E9408257B018C01C601B5016E1969
:101E80007F09800B910B29813A814B815C810E94F3
:101E90000825161617061806190624F44A85442341
:101EA00009F433C1C801B70162197309840995099E
:101EB00029813A814B815C810E94082597FD8BC165
:101EC000C201B1016A197B098C099D090E9408258C
:101ED00097FD0BC1C201B101A20191010E94082529
:101EE0007B018C01C601B501A60195010E94082560
:101EF000A8019701261B370B480B590BCA01B901E2
:101F000022E030E040E050E00E945D25CA01B901C6
:101F10002B893C894D895E890E945D2559016A01A2
:101F2000A60CB71CC81CD91CC801B70122E030E0C0
:101F300040E050E00E945D25CA01B9012F85388933
:101F400049895A890E945D2579018A018B8D9C8D72
:101F5000AD8DBE8DE80EF91E0A1F1B1F0FB60F9226
:101F6000F8946F89788D898D9A8D0E94BF23609334
:101F700018017093190180931A0190931B01A0928C
:101F80002C01B0922D01C0922E01D0922F01E0922F
:101F90003001F092310100933201109333018B8DA7
:101FA0009C8DAD8DBE8D8093340190933501A093AF
:101FB0003601B093370110923C0184E08093030115
:101FC000C201B1010E94BF232D813E814F815885FE
:101FD0000E94242360931C0170931D0180931E01B5
:101FE00090931F016B857C858D859E850E94BF2304
:101FF0002D813E814F8158850E942423DC019B0165
:10200000AC01209320013093210140932201509391
:102010002301CB018093240190932501A0932601F5
:10202000B09327016B897C898D899E890E94BF238B
:102030002D813E814F8158850E9424232D813E8130
:102040004F8158850E9424236093280170932901B1
:1020500080932A0190932B010F900FBE6E960FB6BE
:10206000F894DEBF0FBECDBFCF91DF911F910F91CE
:10207000FF90EF90DF90CF90BF90AF909F908F90A8
:102080007F906F905F904F903F902F900895809138
:102090003801909139019C0140E050E02F87388B46
:1020A000498B5A8B50954095309521953F4F4F4F16
:1020B0005F4F2B8B3C8B4D8B5E8B80913A019091C7
:1020C0003B01A0E0B0E0222433242101281A390A80
:1020D0004A0A5B0A3FEF39878FEF9FEFAFEFBFEF01
:1020E00089839A83AB83BC8383CE8B899C89AD899A
:1020F000BE89B095A095909581959F4FAF4FBF4FEA
:102100008B8B9C8BAD8BBE8BE5CE6B857C858D855B
:102110009E859B01AC010E94082522E030E040E052
:1021200050E00E945D2550954095309521953F4F98
:102130004F4F5F4FCA01B9012F85388949895A89A4
:102140000E945D2539014A018F89988DA98DBA8D2C
:10215000680E791E8A1E9B1E6B8D7C8D8D8D9E8DCB
:1021600066197709880999092F85388949895A8913
:102170000E9408250E94BF230E94B224A985EA2E4E
:10218000FF24E7FCF094F094E194F108F394002725
:10219000F7FC0095102F0E948C239B01AC01C80115
:1021A000B7010E9408257B018C018F859889698978
:1021B0007A892B893C894D895E892F87388B498B99
:1021C0005A8BAB01DA018B8B9C8BAD8BBE8BAA2417
:1021D000BB24650167CEC601B501A60195010E9429
:1021E000082524E030E040E050E00E945D25509555
:1021F0004095309521953F4F4F4F5F4FCA01B90130
:102200002B893C894D895E890E945D2559016A01AF
:102210002B8D3C8D4D8D5E8D620E731E841E951E22
:10222000C401B30122E030E040E050E00E945D25AF
:10223000A20EB31EC41ED51E17012801860175010A
:102240008DCE6B857C858D859E859B01AC010E9422
:10225000082522E030E040E050E00E945D255095E6
:102260004095309521953F4F4F4F5F4FCA01B901BF
:102270002B893C894D895E890E945D2539014A017F
:102280002F89388D498D5A8D620E731E841E951EBE
:10229000AA24BB2465013FEF3A87BDCD0E945103BC
:1022A0009C01442737FD4095542F2B873C874D8751
:1022B0005E870E9436046F8B788F898F9A8F80910A
:1022C000040190910501A0910601B09107018D8351
:1022D0009E83AF83B88757CDEF92FF920F931F93E2
:1022E000FC010FB60F92F8940F900FBE80915D0124
:1022F000833009F467C0843030F1853009F44DC073
:10230000853008F441C0863091F4E0905E01F09091
:102310005F0100916001109161010E943604E60E98
:10232000F71E081F191FC801B7010E94710E0FB6D2
:102330000F92F89410925D010F900FBE1F910F91B4
:10234000FF90EF900895813099F18230B8F3809139
:102350005E0190915F01A0916001B0916101848361
:102360009583A683B7830FB60F92F89421E020934C
:1023700003018093530190935401A0935501B093AE
:1023800056010F900FBED3CF80915E0190915F01F7
:10239000958384830E94DD0CCACF60915E017091A9
:1023A0005F0180916001909161010E94710EBFCF29
:1023B00080915E0190915F0195838483CF010E949B
:1023C000370EB5CF80915E0190915F01A0916001C1
:1023D000B091610184839583A683B7830FB60F9272
:1023E000F89421E02093030120915301309154018E
:1023F0004091550150915601280F391F4A1F5B1F0C
:10240000209353013093540140935501509356014A
:102410000F900FBE8CCFEF92FF920F931F93FC0192
:10242000E480F580068117810E943604E60EF71ECF
:10243000081F191FC801B7010E94710E1F910F914B
:10244000FF90EF900895FC016481758186819781EA
:102450000E94710E08950F931F93CF93DF938C0109
:10246000FC0113820FC0F8018381C82FD0E083EAFA
:1024700091E00E94B500C00FD11F8C83F8018381C9
:102480008F5F838383EA91E00E94AD00882359F334
:10249000DF91CF911F910F9108950F931F938C019E
:1024A00082E0F801838387E00E945116F80195834A
:1024B00084831F910F9108950F931F938C0188E0DF
:1024C000F801838380E00E945116F801958384838C
:1024D00081E00E945116F8019783868382E00E9472
:1024E0005116F8019187808783E00E945116F80108
:1024F000938782871F910F9108950F931F938C01EB
:1025000082E0F80183830E943304F8019583848379
:102510001F910F910895CF93DF93EC016C8162308E
:1025200040F086EB91E063E00E94E200DF91CF9102
:10253000089580EC90E00E94B4260FB60F92F894B4
:102540008C81809317010F900FBEDF91CF9108957A
:10255000FC016481662329F080EB90E00E94B426A0
:10256000089586EB91E063E00E94E2000895FC018B
:10257000648116162CF480E090E00E94B426089541
:1025800086EB91E063E00E94E2000895FF920F93D2
:102590001F93FC010481FFE0FF2EF02280E890E011
:1025A0006F2D0E94B4260FB60F92F8948AB110E0F6
:1025B00098013695322F2227379527958F77822BD2
:1025C0008AB984B1000F111F000F111F0873877C97
:1025D000082B04B9F09209010F900FBE1F910F91C3
:1025E000FF9008950FB60F92F894109203010F9088
:1025F0000FBE80E00E947E0508950FB60F92F894FA
:1026000010925D010E94F903109247011092480157
:102610001092490110924A0110924B0110924C0104
:1026200010924D0110924E0181E0809303011092AF
:1026300053011092540110925501109256018FEFE0
:102640000E947E050F900FBE08950E94F903089521
:10265000FC014481558166817781DB01CA010197C4
:10266000A109B1098050924CA140B04028F480EA01
:1026700090E00E94C226089586EB91E063E00E94FC
:10268000E20008950F931F93FC010481158180E5FA
:1026900090E0B8010E94CA260FB60F92F8941093EA
:1026A0000B0100930A010F900FBE1F910F91089527
:1026B000CF93DF93FC01C481D581209789F080E41A
:1026C00090E0BE010E94CA260FB60F92F894D093F4
:1026D0000B01C0930A010F900FBEDF91CF910895B7
:1026E00086EB91E063E00E94E200DF91CF910895D4
:1026F000CF93DF93FC01C481D581209789F080E7D7
:1027000090E0BE010E94CA260FB60F92F894D093B3
:102710003B01C0933A010F900FBEDF91CF91089516
:1027200086EB91E063E00E94E200DF91CF91089593
:10273000CF93DF93FC01C481D581209789F080E697
:1027400090E0BE010E94CA260FB60F92F894D09373
:102750003901C09338010F900FBEDF91CF910895DA
:1027600086EB91E063E00E94E200DF91CF91089553
:102770000F931F93FC010481158180E390E0B80161
:102780000E94CA260FB60F92F8941093420100934C
:1027900041010F900FBE1F910F9108950F931F934A
:1027A000FC010481158180E290E0B8010E94CA26F4
:1027B0000FB60F92F8941093400100933F010F90D1
:1027C0000FBE1F910F9108950F931F93FC01048179
:1027D000158180E190E0B8010E94CA260FB60F92E1
:1027E000F89410933E0100933D010F900FBE1F918E
:1027F0000F910895CF93DF93EC01EA81EC3C98F5BB
:10280000E83CE8F08B81882309F070C00E949405B1
:10281000882391F1EA81F0E0EE0FFF1FE655FF4FAC
:102820000190F081E02DCE01099586EB91E00E94A8
:10283000AD00882309F053C0DF91CF910895E437AC
:1028400090F4E43620F5ED3170F4F0E0E350FE4F03
:102850009B818081981771F186EB91E062E00E9484
:10286000E20080E0E9CF86EB91E061E00E94E200C7
:1028700080E0DF91CF910895EA81E83C11F0EA3CD5
:1028800051F686EB91E064E00E94E200C3CFF0E0F5
:10289000EE0FFF1FEE5AFE4F0190F081E02D0995DB
:1028A0008B818823E1F086EB91E065E00E94E200F5
:1028B00080E0C2CF0E949405882329F5EA818E2FFB
:1028C00087508630C8F0EA31B9F0F0E0EE0FFF1F14
:1028D000ED53FE4F0190F081E02DCE01099586EB7E
:1028E00091E00E94AD00DF91CF91089586EB91E0D9
:1028F00065E00E94E2008ACF86EB91E064E00E94EE
:10290000E20080E099CFEA81E0CF86EB91E00E947F
:10291000530084EE93E19093C4018093C30122E0BD
:102920002093FD018EEC93E19093C6018093C50145
:102930002093FE0188EB93E19093C8018093C70137
:102940002093FF0188E993E19093CA018093C90124
:102950002093000288E793E19093CC018093CB0110
:102960002093010288E593E19093CE018093CD01FD
:102970002093020282E493E19093D0018093CF01EF
:102980002093030287E39EE09093D2018093D101CC
:102990002093040280E69BE09093D4018093D301BE
:1029A00034E03093050286E79BE09093D601809354
:1029B000D501309306028EE09EE09093D80180937B
:1029C000D7012093070283E292E19093DA0180938A
:1029D000D901309308028BE092E19093DC0180935F
:1029E000DB013093090288E99BE09093DE0180933C
:1029F000DD0120930A0280EB9BE09093E00180933D
:102A0000DF0130930B0286EC9BE09093E201809310
:102A1000E10130930C028CED9BE09093E4018093F4
:102A2000E30120930D0284EF9BE09093E6018093F5
:102A3000E50130930E028AE09CE09093E8018093D8
:102A4000E70130930F0286EC92E19093EA018093C4
:102A5000E90121E02093100280E29CE09093EC01D8
:102A60008093EB012093110287EB92E19093EE01AA
:102A70008093ED012093120288EA92E19093F00195
:102A80008093EF012093130288E293E19093F20187
:102A90008093F1013093140285E293E19093F40165
:102AA0008093F30110921502EDEFF2E1F093F6013D
:102AB000E093F5011092160264E27EE07093F80153
:102AC0006093F7011092170242EF52E15093FA011E
:102AD0004093F901109218028BE892E19093FC0167
:102AE0008093FB012093190281E49CE090931B02E8
:102AF00080931A0280E59CE090931D0280931C0253
:102B00008FE59CE090931F0280931E028EE69CE06E
:102B100090932102809320028DE79CE09093230202
:102B2000809322028CE89CE09093250280932402FB
:102B30008BE99CE090932702809326028AEA9CE02E
:102B4000909329028093280281EB9CE090932B02C2
:102B500080932A0288EB9CE090932D0280932C02B4
:102B60008CE592E190932F0280932E0284E19EE007
:102B700090933102809330028DE792E1909333027B
:102B8000809332028FEC9CE0909335028093340264
:102B90008DE492E190933702809336028BE292E1CA
:102BA00090933902809338028CE691E190933B0236
:102BB00080933A02F0933D02E0933C0270933F020F
:102BC00060933E025093410240934002089517B82B
:102BD00010927E00E4E6F0E080818E7F8083EAE759
:102BE000F0E0808180688083808180628083808142
:102BF00087608083ECE7F0E080818F73806480835E
:102C0000EBE7F0E08081887F80830FB60F92F89425
:102C10008FEF809359020F900FBEECE7F0E08081B8
:102C20008F7D8083EAE7F0E0808188608083808107
:102C30008065808378940895EAE7F0E09081987F3A
:102C4000982B90830895ECE7F0E090819F73982B88
:102C500090830895EBE7F0E09081987F982B908324
:102C60000895EAE7F0E08081877F808380818F7715
:102C7000808308950FB60F92F894E9E5F2E0E80F2B
:102C8000F11D8FEF80830F900FBE08950FB60F9246
:102C9000F894E9E5F2E0E80FF11D10820F900FBE05
:102CA0000895E82F0FB60F92F894F0E0EE0FFF1F93
:102CB000ED5BFD4F208131810F900FBEC90108955A
:102CC0001F920F920FB60F9211242F934F935F9381
:102CD0008F939F93EF93FF93E0914202F0E08091F6
:102CE000780090E0EE0FFF1FED5BFD4F9183808336
:102CF000E0914202F0E0EE0FFF1FED5BFD4F4081DF
:102D0000518120917900922F80E0842B952B918323
:102D10008083809142028F5F8093420280914202C1
:102D20008B3010F010924202E0914202F0E0E75A3C
:102D3000FD4F8081882369F3809142028930A8F099
:102D400090917C00809142028B5F907F892B8093D1
:102D50007C00FF91EF919F918F915F914F912F9107
:102D60000F900FBE0F901F90189580917C0090914E
:102D70004202807F892B80937C00EBCF229A239A9A
:102D80002498259A2D9A2A9A1CBC8CB580618CBDFA
:102D90008CB582608CBD8CB584608CBD8DB5816036
:102DA0008DBD8CB580648CBD08958EBD0DB407FEBD
:102DB000FDCF8EB50895BC0101978059914010F068
:102DC00080E0089580E29EE40E942725603130F083
:102DD000862F90E0409795958795682F6093B8006F
:102DE0008FEF0895181614F080E0089590E0880F92
:102DF000991F20E0662329F4282B2093BA008FEF37
:102E0000089521E0F9CF90936501809364010895BE
:102E1000909363018093620108959093670180937A
:102E2000660108959093B8028093B7020895909335
:102E3000BA028093B9020895ECEBF0E080818F70C4
:102E4000806A80830895ECEBF0E080818F70806D64
:102E5000808308958091BC0087FFFCCF0895809304
:102E6000BB00ECEBF0E080818F7080688083089578
:102E7000882339F48091BC008F7080688093BC00F7
:102E800008958091BC008F70806C8093BC00089581
:102E90001F920F920FB60F9211242F933F934F93CF
:102EA0005F936F937F938F939F93AF93BF93EF93B2
:102EB000FF93E091B900E695E695E695F0E0EE0F18
:102EC000FF1FE554FD4F0190F081E02D0995FF9122
:102ED000EF91BF91AF919F918F917F916F915F9192
:102EE0004F913F912F910F900FBE0F901F9018950B
:102EF000809172028093BB00ECEBF0E080818F70D8
:102F0000806880830895909193028091940298172D
:102F100048F08091BC008F70806D8093BC0010924F
:102F200071020895E92FF0E0ED58FD4F80819F5F19
:102F3000909393028093BB008091BC008F70806857
:102F40008093BC0008958091B5029091BB00E5E9A3
:102F5000F2E0E80FF11D90838F5F8093B502ECEBF8
:102F6000F0E080818F70806D8083109271020895EF
:102F700085E0809371021092B502ECEBF0E0808165
:102F80008F70806C808308958091BC008F70806CFE
:102F90008093BC00E091B702F091B802309729F01D
:102FA0008091B50265E972E0099510927102089569
:102FB00084E080937102E091B902F091BA023097F7
:102FC00031F080E263E772E009958093940280918A
:102FD00073028093BB0081E08093930280919402FE
:102FE000823038F48091BC008F7080688093BC0080
:102FF00008958091BC008F70806C8093BC00089510
:1030000090919302E92FF0E0ED58FD4F808180937D
:10301000BB009F5F9093930280919402981738F0C1
:103020008091BC008F7080688093BC00089580916F
:10303000BC008F70806C8093BC000895ECEBF0E0D6
:1030400080818F70806C8083109271020895089542
:103050008DEE98E19093BC028093BB0288E797E1E4
:103060009093BE028093BD029093C0028093BF02F2
:1030700083E897E19093C2028093C1022FED38E17B
:103080003093C4022093C3029093C6028093C5027A
:103090003093C8022093C70281ED98E19093CA0251
:1030A0008093C90284EB99E19093CC028093CB0288
:1030B0003093CE022093CD0288EE99E19093D00216
:1030C0008093CF0283EA97E19093D2028093D1025A
:1030D00088EB97E19093D4028093D3029093D60229
:1030E0008093D5029093D8028093D7029093DA020E
:1030F0008093D9022CEC39E13093DC022093DB027F
:103100008DEA99E19093DE028093DD023093E00234
:103110002093DF029093E2028093E10284EC97E136
:103120009093E4028093E30288ED97E19093E602A6
:103130008093E5029093E8028093E70280E098E1B3
:103140009093EA028093E9028EE198E19093EC0279
:103150008093EB029093EE028093ED0287E298E178
:103160009093F0028093EF029093F2028093F10229
:103170009093F4028093F3029093F6028093F50209
:103180009093F8028093F7028BEC98E19093FA0207
:103190008093F902089584E692E064E00E94E200E0
:1031A0000895ECEBF0E080818F708068808384E686
:1031B00092E063E00E94E200109271020895ECEB4D
:1031C000F0E080818F70806D808384E692E061E022
:1031D0000E94E200109271020895ECEBF0E0808111
:1031E0008F70806D808384E692E062E00E94E2004E
:1031F000109271020895CF92DF92EF92FF920F9397
:103200001F93DF93CF9300D0CDB7DEB7D82EF62E25
:10321000E42EC52E8E010F5F1F4FC8010E94420190
:10322000809171028823D1F06091640170916501F1
:10323000C8010E947801882399F384E692E065E052
:103240000E94E20080E00F900F90CF91DF911F91DC
:103250000F91FF90EF90DF90CF90089582E08093E0
:1032600071028D2D90E0880F991F80937202FF20CC
:1032700061F0A3E7B2E08E2D9C2D9C01F9018191B4
:103280008D938E2F8E198F15D0F310929302F0929A
:1032900094028091BC008F70806A8093BC008FEF95
:1032A000D2CF0F931F93DF93CF9300D0CDB7DEB76C
:1032B0000E94FB18882339F40F900F90CF91DF9173
:1032C0001F910F9108958E010F5F1F4FC8010E943B
:1032D0004201809171028823B1F060916201709186
:1032E0006301C8010E947801882399F384E692E083
:1032F00066E00E94E20080E00F900F90CF91DF9196
:103300001F910F91089584E692E00E94AD00D4CF02
:10331000449A459A1092B8021092B7021092BA02DB
:103320001092B9020E94281884E692E00E9453008D
:103330000E94100184E690E00E94DB16ECEBF0E0C6
:10334000808184608083109271028081816080839B
:1033500080818064808378940895ECEBF0E0808134
:103360008F708068808308952091B50230E080914D
:10337000B60290E00197281739073CF08091BC0015
:103380008F7080688093BC0008958091BC008F701E
:10339000806C8093BC0008958091B5029091BB0031
:1033A000E82FF0E0EB56FD4F90838F5F8093B502DE
:1033B000803238F08091BC008F7080688093BC00B0
:1033C00008958091BC008F70806C8093BC0008953C
:1033D0002091B5028091BB00E22FF0E0EB56FD4F4B
:1033E00080832F5F2093B50230E08091B60290E099
:1033F0000197281739073CF08091BC008F708068D6
:103400008093BC0008958091BC008F70806C809385
:10341000BC0008958095880F8093BD00089528EE24
:1034200033E040E050E00E943B25DA01C9010E94F0
:10343000DB160895CF93DF93EC01809168019091A2
:1034400069010E94AD00882321F08091FB0288234E
:1034500021F480E0DF91CF9108950FB60F92F89498
:103460008091FC0288838091FD0289838091FE0215
:103470008A832091FF022B83809110038C8B22235F
:1034800071F090E0E92FF0E0DF01A450BD4F1496F9
:103490008C91EC0FFD1F84839F5F921798F310921D
:1034A000FB020F900FBE8FEFD5CFDF93CF93CDB739
:1034B000DEB765970FB6F894DEBF0FBECDBF9C0197
:1034C000FC018081898381818A8382818B838381CE
:1034D0008C83882351F190E0AE014B5F5F4FE92F61
:1034E000F0E0DA01AE0FBF1FE20FF31F84818C936F
:1034F0009F5FF9018381981790F3480F511DF901DF
:103500008489FA018083F90163816B5F8081AE0158
:103510004F5F5F4F0E94511965960FB6F894DEBF5A
:103520000FBECDBFCF91DF910895AE014B5F5F4FCE
:10353000E4CFFF920F931F93F82E8B010E948819FE
:103540008F2D61E00E94F216C8010E94DB168FEAFF
:103550009AE10E9412171F910F91FF9008951F93F7
:10356000CF93DF93182FEB018091FB028F3F09F47B
:1035700046C0FE0181918093FC0289818093FD0207
:10358000DF01119681818093FE02AD014F5F5F4F95
:1035900011968C918093FF028091FF0290E0059636
:1035A000212F30E082179307E1F4DA011196809120
:1035B000FF02882361F090E0E92FF0E08D91E45064
:1035C000FD4F84839F5F8091FF029817A8F38C9131
:1035D000809310038FEF8093FB02DF91CF911F91B7
:1035E0000895809168019091690162E10E948600CE
:1035F0008FEF8093FB02DF91CF911F91089580910F
:1036000068019091690161E10E948600B2CF9B013F
:10361000AC0160EA75E286E290E00E943B25215011
:10362000304040405040DA01C9010197A109B10979
:103630008F5F9F4FA040B04010F080E00895BB27FF
:10364000A52F942F832F8093C5002093C4008FEF64
:103650000895E2ECF0E09081282F2670997F292BC5
:103660002083E1ECF0E09081869584709B7F982B1D
:1036700090830895E2ECF0E090819F7C982B9083FA
:103680000895E2ECF0E090819F77982B9083089565
:10369000DC018FEF80932603B0933003A0932F03B8
:1036A00060933103FD01229181E090E002C0880F18
:1036B000991F6A95E2F7282B20832C91809582230D
:1036C0008C93E1ECF0E08081806480830895909396
:1036D0006B0180936A0108951F920F920FB60F92AB
:1036E00011242F933F938F939F93EF93FF93E09138
:1036F0002F03F091300330812091310381E090E07D
:1037000002C0880F991F2A95E2F780958323808352
:10371000FF91EF919F918F913F912F910F900FBE4D
:103720000F901F90189587E293E00E942E1E089537
:103730001F920F920FB60F9211242F933F934F9326
:103740005F936F937F938F939F93AF93BF93EF9309
:10375000FF938EE193E00E942E1E882359F58091FD
:103760002603882381F0E0912F03F091300320811C
:103770003091310381E090E002C0880F991F3A95A3
:10378000E2F7282B20838EE193E00E944F1E809366
:10379000C600FF91EF91BF91AF919F918F917F9163
:1037A0006F915F914F913F912F910F900FBE0F90AE
:1037B0001F9018958091C1008F7D8093C100E9CF43
:1037C0008EE193E00E94361E08951F920F920FB66D
:1037D0000F9211241F932F933F934F935F936F93F7
:1037E0007F938F939F93AF93BF93EF93FF938091BA
:1037F000C00084FD39C08091C00082FD2FC080913F
:10380000C00083FD25C01091C60087E293E00E94AE
:10381000361E8823B9F081E193E065E00E948600BE
:10382000FF91EF91BF91AF919F918F917F916F9198
:103830005F914F913F912F911F910F900FBE0F906D
:103840001F90189587E293E0612F0E947A1EE8CFBF
:1038500081E193E066E00E948600D5CF81E193E0AC
:1038600064E00E948600CBCF81E193E063E00E9498
:103870008600C1CFCF93DF93EC0181E193E00E94FA
:10388000AD00882321F480E0DF91CF91089587E295
:1038900093E00E942E1E8823B1F787E293E00E94F6
:1038A0003A1F88838FEFF0CFFF920F931F93DF9320
:1038B000CF9300D0CDB7DEB7F82E8E010F5F1F4F2C
:1038C000C8010E9442018EE193E00E94361E8823C7
:1038D000B9F060916A0170916B01C8010E94780192
:1038E000882389F381E193E067E00E94E20080E0B1
:1038F0000F900F90CF91DF911F910F91FF9008953E
:103900008EE193E06F2D0E940A1F80911F0381308A
:1039100049F08FEF0F900F90CF91DF911F910F9192
:10392000FF9008958091C10080628093C1008FEF65
:10393000F1CF0F931F93CF93DF93082F162F66239A
:1039400091F09C01E90105C021969E01201B2117E1
:1039500050F488810E94541C8823B1F7DF91CF91E5
:103960001F910F9108958FEFDF91CF911F910F91CC
:103970000895CF93DF93EC0101C0219688818823BD
:1039800039F00E94541C8823C1F7DF91CF9108952C
:103990008FEFDF91CF9108958091C00087FF06C01F
:1039A0008091C6008091C00087FDFACF87E293E046
:1039B0000E943F1E08951F93182F87E293E0612F06
:1039C0000E94E21E882341F481E193E061E00E94BD
:1039D000E20080E01F9108958EE193E0612F0E9444
:1039E000E21E882389F38FEFF5CF1092C20087E2A1
:1039F00093E060E20E94E21E882339F481E193E0C3
:103A000061E00E94E20080E008958EE193E060E2D0
:103A10000E94E21E882391F381E193E00E9453000B
:103A20000E9410018091C00082608093C00080914C
:103A3000C0008E7F8093C0008091C2008F738093FE
:103A4000C20060E072EC81E090E00E94071B86E01B
:103A50000E94291B8091C2008F7C8093C2008091BC
:103A6000C2008F778093C2008091C10088698093E3
:103A7000C1000E94CC1C78948FEF089580936E0152
:103A800008950E94071B08950F931F93DF93CF9310
:103A90000F92CDB7DEB78C01CE0101960E943A1C81
:103AA000882309F1809132038330C9F1843010F109
:103AB000853009F45EC08530D0F58981D801129631
:103AC0008C9385E08093320380E00F90CF91DF915B
:103AD0001F910F910895109232038981853519F451
:103AE00081E08093320380E00F90CF91DF911F91AE
:103AF0000F910895813009F448C0823060F3298124
:103B000080913303822790916E01892309F442C08A
:103B1000222309F43FC01092320380E0E5CF89816F
:103B2000F801818384E08093320380E0DDCF86302A
:103B300049F08730C1F68981F801848B10923203F5
:103B40008FEFD2CF80913403D8011396EC91F0E03F
:103B5000E81BF109E00FF11F998194838150809354
:103B60003403882309F0BFCF87E08093320380E0DD
:103B7000BBCF8981F8018383809334038823A1F329
:103B800086E08093320380E0AFCF89818A3A49F0A2
:103B900080E098CF83E080933203D8012C9380E0BB
:103BA000A3CF82E08FCFCF93DF93EC0185E50E9416
:103BB000541C882321F480E0DF91CF9108958AEA94
:103BC0000E94541C8823B9F388810E94541C8823C6
:103BD00091F389810E94541C882369F38A810E9491
:103BE000541C882341F38B810E94541C882319F3B1
:103BF000CE0104966B810E94991C8823E1F28C8986
:103C00000E94541C8823B9F28FEFD6CFDF92EF9237
:103C1000FF920F931F93D62E79018A018230C1F053
:103C2000D09233030E94F51C882379F4DD24C80167
:103C3000B7010E94071B882309F4DD248D2D1F91F5
:103C40000F91FF90EF90DF900895DD24DA94EFCF8D
:103C50008BE290E062E00E94481BE2CFFC01818190
:103C6000882311F080E008958FEF0895FC01918181
:103C70008081981710F480E008958FEF0895FC017B
:103C80000FB60F92F8948681978193838283868101
:103C900097819583848311820F900FBE0895DC0174
:103CA00011968C911197815011968C9311971496BF
:103CB000ED91FC91159731911596FC93EE93149725
:103CC00014964D915C91159716968D919C9117972E
:103CD0002C91820F911D4817590711F0832F0895D9
:103CE00016968D919C91179715969C938E93149789
:103CF000832F0895DC0111968C9111978F5F119697
:103D00008C9311971296ED91FC91139761931396F2
:103D1000FC93EE93129712964D915C911397169621
:103D20008D919C9117972C91820F911D48175907DF
:103D300009F0089516968D919C91179713969C9370
:103D40008E9312970895DC011496ED91FC911597CE
:103D500070E0E60FF71F16968D919C9117972C91A6
:103D6000820F911D8E179F0748F41496ED91FC91D8
:103D700015978C91681B7109E60FF71F80810895D4
:103D8000DC010FB60F92F8941496ED91FC91159703
:103D900070E0E60FF71F16968D919C9117972C9166
:103DA000820F911D8E179F0748F41496ED91FC9198
:103DB00015978C91681B7109E60FF71F0F900FBEC6
:103DC00080810895CF93DF93EC01862F0FB60F9279
:103DD000F8941982688390E061E070E00E94782591
:103DE0009F838E838E819F81892B31F480E00F9099
:103DF0000FBEDF91CF9108958E819F819B838A832F
:103E00008E819F819D838C838FEF0F900FBEDF91FA
:103E1000CF910895DC010FB60F92F89411968C9112
:103E200011978F5F11968C9311971296ED91FC91DB
:103E3000139761931396FC93EE93129712964D91FC
:103E40005C91139716968D919C9117972C91820FE8
:103E5000911D4817590719F00F900FBE0895169637
:103E60008D919C91179713969C938E9312970F9018
:103E70000FBE0895DC010FB60F92F89411968C9145
:103E80001197815011968C9311971496ED91FC9196
:103E9000159731911596FC93EE93149714964D91C6
:103EA0005C91159716968D919C9117972C91820F86
:103EB000911D4817590721F00F900FBE832F0895C9
:103EC00016968D919C91179715969C938E931497A7
:103ED0000F900FBE832F08950FB60F92F894E1E86C
:103EE000F0E09081987F982B90830F900FBE0895FB
:103EF0000FB60F92F894809342032098289A81304D
:103F000041F0809181008F7B809381000F900FBEE4
:103F10000895809181008064809381000F900FBE8E
:103F200008950FB60F92F894909341038093400345
:103F30000F900FBE08950FB60F92F894909336032A
:103F4000809335030F900FBE08950FB60F92F8942B
:103F500090933F0380933E030F900FBE08950FB6DA
:103F60000F92F894109285001092840010928700AE
:103F7000109286000F900FBEB59AEFE6F0E08081B8
:103F800080628083089581E00E94781F0FB60F92AF
:103F9000F894E1E8F0E08081887F816080830F9071
:103FA0000FBE10928000E1E8F0E08081806880839D
:103FB0000E94AF1F78940895EFE6F0E080818F7D36
:103FC0008083B59A0FB60F92F894109285001092E4
:103FD000840010928700109286000F900FBE089503
:103FE000EFE6F0E08081816080830895EFE6F0E005
:103FF00080818E7F80830895FC010FB60F92F89424
:1040000080913C0390913D03918380830F900FBE7C
:10401000892B11F480E008958FEF08951F920F927D
:104020000FB60F9211242F933F934F935F936F938B
:104030007F938F939F93AF93BF93EF93FF934091A1
:1040400086005091870083B12091420390E08170F7
:10405000907030E08217930709F457C050933B03E8
:1040600040933A0380913A0390913B0320913703A8
:1040700030913803821B930B90933D0380933C0354
:1040800080913903815080933903809142038130BC
:10409000B1F1809181008F7B809381001092850027
:1040A0001092840080913903882359F420913703BA
:1040B0003091380380913A0390913B038217930724
:1040C000B8F51092390310923D0310923C03E09131
:1040D0003E03F0913F03309709F00995FF91EF916E
:1040E000BF91AF919F918F917F916F915F914F9110
:1040F0003F912F910F900FBE0F901F9018958091B8
:104100008100806480938100C9CF5093380340932D
:104110003703809142038130B9F08091810080643F
:1041200080938100809139038F5F80933903D6CFCC
:10413000E0914003F0914103309781F280913C037C
:1041400090913D030995CACF809181008F7B809328
:104150008100E8CF1F920F920FB60F9211242F9378
:104160003F934F935F936F937F938F939F93AF93FF
:10417000BF93EF93FF93E0913503F09136033097AF
:1041800009F00995FF91EF91BF91AF919F918F91A8
:104190007F916F915F914F913F912F910F900FBE43
:1041A0000F901F9018951092430310924D0308959D
:1041B0001092430310924D030895DF93CF9300D0E4
:1041C000CDB7DEB780914303882321F0809144036B
:1041D000882329F40F900F90CF91DF9108951092CA
:1041E0004403CE0101960E94FC1F882399F3698144
:1041F0007A81CB01815B94408B5E934158F780E0DC
:1042000090E00E94BD2327E137EB41E55FE30E9488
:104210004B240E948C23809145039091460381504A
:10422000984008F47FC08091450390914603681B35
:10423000790B60507C4F8091470390914803909395
:104240004A038093490380914B0390914C039093D0
:1042500048038093470380914B0390914C03680F70
:10426000791F7595679570934C0360934B0320916C
:104270004B0330914C038091470390914803609128
:104280004B0370914C034091490350914A03281B02
:10429000390B37FD54C0CB01841B950B97FD4BC0E8
:1042A00082179307E4F02091490330914A038091EB
:1042B00047039091480360914B0370914C034091E8
:1042C000490350914A03281B390B37FD43C0CB01EA
:1042D000841B950B97FD3AC08217930794F4809145
:1042E0004B0390914C032091490330914A03280FCE
:1042F000391F37FD28C03595279530934803209303
:1043000047038091470390914803AA2797FDA09502
:10431000BA2F8093530190935401A0935501B09309
:10432000560158CF8091450390914603681B790B45
:1043300060507C4080CF909581959F4FB1CF309554
:1043400021953F4FA8CF2F5F3F4FD5CF90958195B7
:104350009F4FC2CF309521953F4FB9CF0E94C31FC9
:1043600082E00E946C1F0FB60F92F89410924603E1
:104370001092450310924C0310924B0310924D0380
:1043800010924303109244030F900FBE83ED91E20D
:104390000E94911F83ED90E20E94A51F88ED90E29C
:1043A0000E949B1F089580914303882349F48091C4
:1043B0004D038F5F80934D0381508A3028F4089518
:1043C0008FEF80934403089510925D010E94F903DA
:1043D00010924701109248011092490110924A012F
:1043E00010924B0110924C0110924D0110924E010F
:1043F0000E943604609353017093540180935501D9
:10440000909356018FEF0E947E050E943304909393
:1044100046038093450381E0809303018FEF8093EF
:10442000430310924D030895AF92BF92CF92DF9253
:10443000EF92FF920F931F93DF93CF93CDB7DEB729
:10444000C254D0400FB6F894DEBF0FBECDBF0E945D
:104450001A080E94851480E05E010894A11CB11C1A
:10446000B501409108010E94F8026091120170911B
:1044700013018091140190911501EB85FC8509953C
:10448000E985FA858091160109959DE0C92ED12C08
:10449000CC0EDD1E82E0B601409108010E94F802B8
:1044A00060910E0170910F018091100190911101A6
:1044B000EF89F88D0995ED89FE898091160109959E
:1044C0000E94AE218E01075E1F4F8EE2E82EF12C76
:1044D000EC0EFD1E0E941D0B0E94DD20C501B801DF
:1044E0000E9440028823C9F086E991E00E94AD0055
:1044F0008823A9F5C501B80146E951E00E94D00121
:10450000882341F1C601B7010E944002882379F453
:10451000C601B7010E94D00ADDCFC501B8010E94D3
:10452000D00AC601B7010E944002882389F386E9B8
:1045300091E00E94AD008823D1F4C601B70146E99D
:1045400051E00E94D001882329F6C601B7010E94DC
:10455000840AC0CFC501B8010E94840AD3CFC80124
:104560000E94FA13882331F60E94610AC3CFC70163
:104570000E94FA13882309F70E94610ADECF50587F
:10458000BB27AA270ED04DC13ED130F043D120F039
:1045900031F49F3F11F41EF433C10EF4E095E7FBB4
:1045A00029C1E92F4FD180F3BA1762077307840737
:1045B000950718F071F49EF567C10EF4E0950B2E87
:1045C000BA2FA02D0B01B90190010C01CA01A00165
:1045D0001124FF27591B99F0593F50F4503E68F1C0
:1045E0001A16F040A22F232F342F4427585FF3CF01
:1045F000469537952795A795F0405395C9F77EF4D2
:104600001F16BA0B620B730B840BBAF09150A1F01A
:10461000FF0FBB1F661F771F881FC2F70EC0BA0FA0
:10462000621F731F841F48F4879577956795B79528
:10463000F7959E3F08F0B3CF9395880F08F0992720
:10464000EE0F9795879508950CD0EBC0E3D040F01E
:10465000DAD030F021F45F3F19F0CCC0511115C110
:10466000CFC0F0D098F39923C9F35523B1F3951B2C
:10467000550BBB27AA2762177307840738F09F5F83
:104680005F4F220F331F441FAA1FA9F333D00E2EF2
:104690003AF0E0E830D091505040E695001CCAF75F
:1046A00029D0FE2F27D0660F771F881FBB1F261724
:1046B00037074807AB07B0E809F0BB0B802DBF01F7
:1046C000FF2793585F4F2AF09E3F510568F092C034
:1046D000DCC05F3FECF3983EDCF3869577956795F9
:1046E000B795F7959F5FC9F7880F911D96958795A8
:1046F00097F90895E1E0660F771F881FBB1F6217C7
:1047000073078407BA0720F0621B730B840BBA0B84
:10471000EE1F88F7E095089504D06894B111B5C0F4
:10472000089598D088F09F5790F0B92F9927B751E6
:10473000A0F0D1F0660F771F881F991F1AF0BA9565
:10474000C9F712C0B13081F09FD0B1E008959CC08C
:10475000672F782F8827B85F39F0B93FCCF386955B
:1047600077956795B395D9F73EF4909580957095B8
:1047700061957F4F8F4F9F4F0895E89409C097FB35
:104780003EF490958095709561957F4F8F4F9F4F28
:104790009923A9F0F92F96E9BB279395F69587956C
:1047A00077956795B795F111F8CFFAF4BB0F11F42F
:1047B00060FF1BC06F5F7F4F8F4F9F4F16C08823D6
:1047C00011F096E911C0772321F09EE8872F762F0C
:1047D00005C0662371F096E8862F70E060E02AF04D
:1047E0009A95660F771F881FDAF7880F9695879539
:1047F00097F9089597F99F6780E870E060E0089561
:104800009FEF80EC089500240A94161617061806E8
:104810000906089500240A941216130614060506C4
:104820000895092E0394000C11F4882352F0BB0F55
:1048300040F4BF2B11F460FF04C06F5F7F4F8F4FB8
:104840009F4F089557FD9058440F551F59F05F3FF3
:1048500071F04795880F97FB991F61F09F3F79F0A2
:1048600087950895121613061406551FF2CF469524
:10487000F1DF08C0161617061806991FF1CF8695A6
:104880007105610508940895E894BB27662777278A
:10489000CB0197F908950BD0C4CFB5DF28F0BADF6C
:1048A00018F0952309F0A6CFABCF1124EECFCADFC5
:1048B000A0F3959FD1F3950F50E0551F629FF00133
:1048C000729FBB27F00DB11D639FAA27F00DB11D8C
:1048D000AA1F649F6627B00DA11D661F829F222715
:1048E000B00DA11D621F739FB00DA11D621F839F9C
:1048F000A00D611D221F749F3327A00D611D231F72
:10490000849F600D211D822F762F6A2F11249F57BF
:1049100050408AF0E1F088234AF0EE0FFF1FBB1FE2
:10492000661F771F881F91505040A9F79E3F510581
:1049300070F060CFAACF5F3FECF3983EDCF3869532
:1049400077956795B795F795E7959F5FC1F7FE2B2C
:10495000880F911D9695879597F9089511F40EF497
:104960004FCF41C077DFD0F39923D9F3CEF39F57D0
:10497000550B87FF46D00024A0E640EA90018058FE
:104980005695979528F4805C660F771F881F20F056
:1049900026173707480730F4621B730B840B202956
:1049A00031294A2BA69517940794202531254A27AB
:1049B00058F7660F771F881F20F02617370748071C
:1049C00030F4620B730B840B200D311D411DA0953B
:1049D00081F7B901842F9158880F9695879508958E
:1049E0009B01AC0158CF9F3F31F0915020F4879547
:1049F00077956795B795880F911D9695879597F947
:104A0000089591505040660F771F881FD2F7089580
:104A1000629FD001739FF001829FE00DF11D649FA2
:104A2000E00DF11D929FF00D839FF00D749FF00D2E
:104A3000659FF00D9927729FB00DE11DF91F639FCF
:104A4000B00DE11DF91FBD01CF0111240895AA1B6E
:104A5000BB1B51E107C0AA1FBB1FA617B70710F069
:104A6000A61BB70B881F991F5A95A9F7809590959B
:104A7000BC01CD010895A1E21A2EAA1BBB1BFD01AA
:104A80000DC0AA1FBB1FEE1FFF1FA217B307E4072D
:104A9000F50720F0A21BB30BE40BF50B661F771F85
:104AA000881F991F1A9469F7609570958095909565
:104AB0009B01AC01BD01CF01089597FB092E05268E
:104AC0000ED057FD04D0D7DF0AD0001C38F4509523
:104AD0004095309521953F4F4F4F5F4F0895F6F722
:104AE00090958095709561957F4F8F4F9F4F08955A
:104AF0000F931F93CF93DF93689F8001699F100DE1
:104B0000789F100D1124C8010E949425EC01009794
:104B100029F060E070E0A8010E949926CE01DF91A3
:104B2000CF911F910F910895CF93DF93BC018230F5
:104B3000910510F462E070E0A0915003B091510330
:104B4000ED01E0E0F0E040E050E021C08881998193
:104B50008617970769F48A819B81309719F09383B0
:104B6000828304C09093510380935003FE0134C0AC
:104B70006817790738F44115510519F0841795071E
:104B800008F4AC01FE018A819B819C01E901209718
:104B9000E9F641155105A9F1CA01861B970B049747
:104BA00008F4BA01E0E0F0E02AC08D919C911197E1
:104BB00084179507F9F46417750781F412968D919F
:104BC0009C911397309719F09383828304C090933C
:104BD000510380935003FD0132964FC0CA01861BDA
:104BE000970BFD01E80FF91F6193719302978D9365
:104BF0009C9343C0FD01828193819C01D901109750
:104C0000A1F680914E0390914F03892B41F480913E
:104C100071019091720190934F0380934E034091E4
:104C20007301509174014115510541F44DB75EB7C0
:104C300080916F0190917001481B590B20914E0398
:104C400030914F0324173507B0F4CA01821B930B30
:104C50008617970780F0AB014E5F5F4F841795076B
:104C600050F0420F531F50934F0340934E03F901EE
:104C70006193719302C0E0E0F0E0CF01DF91CF914A
:104C80000895CF93DF93009709F450C0EC01229769
:104C90001B821A82A0915003B0915103109709F121
:104CA00040E050E0AC17BD0708F1BB83AA83FE01CA
:104CB00021913191E20FF31FAE17BF0779F48D9167
:104CC0009C911197280F391F2E5F3F4F39832883FE
:104CD00012968D919C9113979B838A834115510560
:104CE00071F4D0935103C093500320C012968D915C
:104CF0009C911397AD01009711F0DC01D3CFFA011D
:104D0000D383C28321913191E20FF31FCE17DF07C6
:104D100069F488819981280F391F2E5F3F4FFA016E
:104D2000318320838A819B8193838283DF91CF911A
:104D30000895DC0101C06D9341505040E0F70895A3
:104D4000F999FECF92BD81BDF89A992780B5089553
:104D5000A6E1B0E044E050E00C94D126A8E1B0E038
:104D600042E050E00C94D126262FF999FECF1FBACD
:104D700092BD81BD20BD0FB6F894FA9AF99A0FBE84
:104D800001960895242F0E94B526252F0E94B5264E
:104D90000C94CA260E94B426272F0C94B526DC0159
:104DA000CB01FC01F999FECF06C0F2BDE1BDF89A36
:104DB000319600B40D9241505040B8F70895F894E0
:024DC000FFCF23
:104DC200FFFF0100000000000000000000000000E2
:104DD20000000000000000000000000000000000D1
:104DE20000000000000000000000000000000000C1
:104DF20000000000000000000000000000000000B1
:104E020000000000000000000000000000000000A0
:104E120000000000000000D30500000000000000B8
:104E22000000E803E803E8036402E8031103FF203B
:064E320000520300000025
:00000001FF
